:100000000C942A000C9447000C9447000C94470071
:100010000C9447000C9447000C9447000C94470044
:100020000C9447000C9447000C9447000C94470034
:100030000C9447000C9447000C9447000C94470024
:100040000C9447000C9447000C9447000C94470014
:100050000C94470011241FBECFE5D8E0DEBFCDBF12
:1000600010E0A0E6B0E0ECEEF5E002C005900D92E5
:10007000AC36B107D9F710E0ACE6B0E001C01D9294
:10008000AC36B107E1F70E94A1020C94F4020C9483
:100090000000FC01009709F450C08281882321F000
:1000A0008F3F09F04CC027C08081813079F08130CA
:1000B00030F0823091F0833009F043C015C09AB31C
:1000C0008181809589238ABB80E0089597B38181DF
:1000D0008095892387BB80E0089594B381818095C2
:1000E000892384BB80E0089591B381818095892321
:1000F00081BB80E008958081813069F0813028F0F3
:10010000823079F08330F9F412C09AB38181892B5F
:100110008ABB80E0089597B38181892B87BB80E0FB
:10012000089594B38181892B84BB80E0089591B3B5
:100130008181892B81BB80E0089586E1089581E06B
:10014000089580E0089580E00895442321F04F3F12
:1001500009F03FC021C0813069F0813028F0823041
:1001600079F08330C1F512C08BB3609568236BBB07
:1001700080E0089588B36095682368BB80E00895A7
:1001800085B36095682365BB80E0089582B3609570
:10019000682362BB80E00895813061F0813028F0EF
:1001A000823069F08330C9F40FC08BB3682B6BBB0E
:1001B00080E0089588B3682B68BB80E0089585B31C
:1001C000682B65BB80E0089582B3682B62BB80E03A
:1001D000089581E0089580E0089580E00895FA018F
:1001E000813059F0813028F0823059F0833081F429
:1001F0000CC089B3682360830BC086B36823608317
:1002000007C083B36823608303C080B3682360831F
:100210008081882311F081E080830895813061F02E
:10022000813028F0823069F08330A9F40FC08BB39D
:1002300068276BBB80E0089588B3682768BB80E0BF
:10024000089585B3682765BB80E0089582B3682769
:1002500062BB80E0089581E0089580E068E04FEFA0
:100260000E94A50061E070E080E090E00E94B10291
:1002700080E068E040E00E94A50061E070E080E07E
:1002800090E00E94B102089589E690E00E94490042
:100290000895CF93C82FC295CF70C0FF06C080E0ED
:1002A00060E14FEF0E94A50005C080E060E140E002
:1002B0000E94A500C1FF06C080E060E24FEF0E94EF
:1002C000A50005C080E060E240E00E94A500C2FFFA
:1002D00006C080E060E44FEF0E94A50005C080E00A
:1002E00060E440E00E94A500C87031F080E060E862
:1002F0004FEF0E94A50005C080E060E840E00E944A
:10030000A500CF910895CF93C82F80E062E04FEF12
:100310000E94A5008C2F0E9449010E942D018C2F64
:100320008295807F0E9449010E942D0161E070E06A
:1003300080E090E00E94B102CF910895CF93C82F42
:1003400080E062E040E00E94A5008C2F0E944901FD
:100350000E942D018C2F8295807F0E9449010E946E
:100360002D0161E070E080E090E00E94B102CF9149
:1003700008950E94440164E170E080E090E00E94F2
:10038000B10283E30E949E0182E30E949E0188E203
:100390000E949E018EE00E949E0181E00E949E01CB
:1003A0006AE070E080E090E00E94B10286E00E9486
:1003B0009E018CE00E949E01089581E00E949E01B2
:1003C0000895CF93DF93EC018881882331F0219643
:1003D0000E94830189918823D9F7DF91CF910895F5
:1003E000623031F0633031F0613029F4805C03C059
:1003F0008C5E01C08C5A80680E949E0108950F9304
:100400001F93CF93DF934017510762077307C0F420
:10041000D8011196A80FB91FFC01E40FF51F4F5F1B
:100420005F4F6F4F7F4F0150104020403040C081E0
:10043000DE91D193CC93401751076207730778F38D
:10044000DF91CF911F910F9108954F925F926F921C
:100450007F928F929F92AF92BF92CF92DF92EF9254
:10046000FF920F931F93CF93DF936B017C012A01BF
:1004700048015901D901C8010297A109B1098F3179
:100480009105A105B10508F049C09601DD201CF4D5
:10049000309521953F4F2115310539F1E20101E0F9
:1004A00010E06901EE24D7FCE094FE2CC701B601F0
:1004B000A50194010E94D2026A30710524F0695CA2
:1004C0006883380103C0605D68833801C701B601E5
:1004D000A50194010E94D2020F5F1F4F21962115A2
:1004E0003105F9F66114710431F480E3F20180837F
:1004F000662477246394F201E60DF71D10820894B8
:10050000610871088301222717FD2095322FC2014F
:1005100040E050E0BA010E94FF012C01842D952D8E
:10052000DF91CF911F910F91FF90EF90DF90CF90CF
:10053000BF90AF909F908F907F906F905F904F9003
:1005400008950E94B9010E94DD0180E060E00E94F0
:10055000F0018DE40E94830182E390E00E94B102E9
:10056000F2CFDC01CB010097A105B10561F408953C
:100570002150F1F7315011F0242FFACF0197A10942
:10058000B10919F4089555E14FEF352FF5CFDC018E
:10059000CB010097A105B10521F00197A109B1098F
:1005A000E1F70895A1E21A2EAA1BBB1BFD010DC0A5
:1005B000AA1FBB1FEE1FFF1FA217B307E407F50713
:1005C00020F0A21BB30BE40BF50B661F771F881FEF
:1005D000991F1A9469F760957095809590959B0185
:0C05E000AC01BD01CF010895F894FFCFDD
:0C05EC00031CFF02F0FF01F0FF00FFFF06
:00000001FF
